{
  "contractName": "FPS",
  "abi": [
    {
      "anonymous": false,
      "inputs": [
        {
          "indexed": false,
          "internalType": "address",
          "name": "uploader",
          "type": "address"
        },
        {
          "indexed": false,
          "internalType": "string",
          "name": "cid",
          "type": "string"
        },
        {
          "indexed": false,
          "internalType": "string",
          "name": "config",
          "type": "string"
        }
      ],
      "name": "StorageRequest",
      "type": "event"
    },
    {
      "constant": false,
      "inputs": [
        {
          "internalType": "string",
          "name": "cid",
          "type": "string"
        },
        {
          "internalType": "string",
          "name": "config",
          "type": "string"
        }
      ],
      "name": "store",
      "outputs": [
        {
          "internalType": "bytes32",
          "name": "",
          "type": "bytes32"
        }
      ],
      "payable": false,
      "stateMutability": "nonpayable",
      "type": "function"
    }
  ],
  "bytecode": "0x608060405234801561001057600080fd5b506103fe806100206000396000f3fe608060405234801561001057600080fd5b506004361061002b5760003560e01c8063f641090c14610030575b600080fd5b6100fc6004803603604081101561004657600080fd5b810190808035906020019064010000000081111561006357600080fd5b82018360208201111561007557600080fd5b8035906020019184600183028401116401000000008311171561009757600080fd5b9091929391929390803590602001906401000000008111156100b857600080fd5b8201836020820111156100ca57600080fd5b803590602001918460018302840111640100000000831117156100ec57600080fd5b9091929391929390505050610112565b6040518082815260200191505060405180910390f35b6000604051806040016040528086868080601f016020809104026020016040519081016040528093929190818152602001838380828437600081840152601f19601f82011690508083019250505050505050815260200184848080601f016020809104026020016040519081016040528093929190818152602001838380828437600081840152601f19601f820116905080830192505050505050508152506000803373ffffffffffffffffffffffffffffffffffffffff1673ffffffffffffffffffffffffffffffffffffffff168152602001908152602001600020868660405180838380828437808301925050509250505090815260200160405180910390206000820151816000019080519060200190610230929190610324565b50602082015181600101908051906020019061024d929190610324565b509050507f98161ddebfa4d4fd1c08afb4633d60e0fa659fe1e2c2aebef15f6f1b18df7be93386868686604051808673ffffffffffffffffffffffffffffffffffffffff1673ffffffffffffffffffffffffffffffffffffffff16815260200180602001806020018381038352878782818152602001925080828437600081840152601f19601f8201169050808301925050508381038252858582818152602001925080828437600081840152601f19601f82011690508083019250505097505050505050505060405180910390a1949350505050565b828054600181600116156101000203166002900490600052602060002090601f016020900481019282601f1061036557805160ff1916838001178555610393565b82800160010185558215610393579182015b82811115610392578251825591602001919060010190610377565b5b5090506103a091906103a4565b5090565b6103c691905b808211156103c25760008160009055506001016103aa565b5090565b9056fea265627a7a7231582065473467758d2dd65bf2a119f0906912e65d61a815a342c3d7052c00adb80a8564736f6c63430005100032",
  "source": "// SPDX-License-Identifier: MIT\npragma solidity >=0.4.22 <0.8.0;\n\n// https://ethereum.stackexchange.com/questions/17094/how-to-store-ipfs-hash-using-bytes32\n// https://medium.com/temporal-cloud/efficient-usable-an`d-cheap-storage-of-ipfs-hashes-in-solidity-smart-contracts-eb3bef129eba\n\ncontract FPS {\n    struct Content {\n        string cid;\n        string config;\n    }\n\n    event StorageRequest(address uploader, string cid, string config);\n\n    mapping(address => mapping(string => Content)) uploaderToContent;\n\n    function store(string calldata cid, string calldata config)\n        external\n        returns (bytes32)\n    {\n        uploaderToContent[msg.sender][cid] = Content(cid, config);\n        emit StorageRequest(msg.sender, cid, config);\n        // should return a requestId\n    }\n}\n",
  "sourcePath": "/home/nandit/contract-tests/contracts/FPS.sol",
  "compiler": {
    "name": "solc",
    "version": "0.5.16+commit.9c3226ce.Emscripten.clang"
  },
  "schemaVersion": "3.3.4",
  "updatedAt": "2021-05-03T12:54:38.299Z",
  "devdoc": {
    "methods": {}
  },
  "userdoc": {
    "methods": {}
  }
}